{
  "_format": "hh-sol-artifact-1",
  "contractName": "PokemonAuctionHouse",
  "sourceName": "contracts/PokemonAuctionHouse.sol",
  "abi": [
    {
      "inputs": [
        {
          "internalType": "uint256",
          "name": "_marketplaceFeeBps",
          "type": "uint256"
        }
      ],
      "stateMutability": "nonpayable",
      "type": "constructor"
    },
    {
      "inputs": [],
      "name": "EnforcedPause",
      "type": "error"
    },
    {
      "inputs": [],
      "name": "ExpectedPause",
      "type": "error"
    },
    {
      "inputs": [],
      "name": "FailedCall",
      "type": "error"
    },
    {
      "inputs": [
        {
          "internalType": "uint256",
          "name": "balance",
          "type": "uint256"
        },
        {
          "internalType": "uint256",
          "name": "needed",
          "type": "uint256"
        }
      ],
      "name": "InsufficientBalance",
      "type": "error"
    },
    {
      "inputs": [
        {
          "internalType": "address",
          "name": "owner",
          "type": "address"
        }
      ],
      "name": "OwnableInvalidOwner",
      "type": "error"
    },
    {
      "inputs": [
        {
          "internalType": "address",
          "name": "account",
          "type": "address"
        }
      ],
      "name": "OwnableUnauthorizedAccount",
      "type": "error"
    },
    {
      "inputs": [],
      "name": "ReentrancyGuardReentrantCall",
      "type": "error"
    },
    {
      "inputs": [
        {
          "internalType": "address",
          "name": "token",
          "type": "address"
        }
      ],
      "name": "SafeERC20FailedOperation",
      "type": "error"
    },
    {
      "anonymous": false,
      "inputs": [
        {
          "indexed": true,
          "internalType": "uint256",
          "name": "auctionId",
          "type": "uint256"
        },
        {
          "indexed": true,
          "internalType": "address",
          "name": "assetContract",
          "type": "address"
        },
        {
          "indexed": true,
          "internalType": "address",
          "name": "closer",
          "type": "address"
        },
        {
          "indexed": false,
          "internalType": "uint256",
          "name": "tokenId",
          "type": "uint256"
        },
        {
          "indexed": false,
          "internalType": "address",
          "name": "auctionCreator",
          "type": "address"
        },
        {
          "indexed": false,
          "internalType": "address",
          "name": "winningBidder",
          "type": "address"
        }
      ],
      "name": "AuctionClosed",
      "type": "event"
    },
    {
      "anonymous": false,
      "inputs": [
        {
          "indexed": true,
          "internalType": "address",
          "name": "auctionCreator",
          "type": "address"
        },
        {
          "indexed": true,
          "internalType": "uint256",
          "name": "auctionId",
          "type": "uint256"
        }
      ],
      "name": "CancelledAuction",
      "type": "event"
    },
    {
      "anonymous": false,
      "inputs": [
        {
          "indexed": true,
          "internalType": "address",
          "name": "auctionCreator",
          "type": "address"
        },
        {
          "indexed": true,
          "internalType": "uint256",
          "name": "auctionId",
          "type": "uint256"
        },
        {
          "indexed": true,
          "internalType": "address",
          "name": "assetContract",
          "type": "address"
        },
        {
          "components": [
            {
              "internalType": "uint256",
              "name": "auctionId",
              "type": "uint256"
            },
            {
              "internalType": "uint256",
              "name": "tokenId",
              "type": "uint256"
            },
            {
              "internalType": "uint256",
              "name": "quantity",
              "type": "uint256"
            },
            {
              "internalType": "uint256",
              "name": "minimumBidAmount",
              "type": "uint256"
            },
            {
              "internalType": "uint256",
              "name": "buyoutBidAmount",
              "type": "uint256"
            },
            {
              "internalType": "uint64",
              "name": "timeBufferInSeconds",
              "type": "uint64"
            },
            {
              "internalType": "uint64",
              "name": "bidBufferBps",
              "type": "uint64"
            },
            {
              "internalType": "uint64",
              "name": "startTimestamp",
              "type": "uint64"
            },
            {
              "internalType": "uint64",
              "name": "endTimestamp",
              "type": "uint64"
            },
            {
              "internalType": "address",
              "name": "auctionCreator",
              "type": "address"
            },
            {
              "internalType": "address",
              "name": "assetContract",
              "type": "address"
            },
            {
              "internalType": "address",
              "name": "currency",
              "type": "address"
            },
            {
              "internalType": "enum IEnglishAuctions.TokenType",
              "name": "tokenType",
              "type": "uint8"
            },
            {
              "internalType": "enum IEnglishAuctions.Status",
              "name": "status",
              "type": "uint8"
            }
          ],
          "indexed": false,
          "internalType": "struct IEnglishAuctions.Auction",
          "name": "auction",
          "type": "tuple"
        }
      ],
      "name": "NewAuction",
      "type": "event"
    },
    {
      "anonymous": false,
      "inputs": [
        {
          "indexed": true,
          "internalType": "uint256",
          "name": "auctionId",
          "type": "uint256"
        },
        {
          "indexed": true,
          "internalType": "address",
          "name": "bidder",
          "type": "address"
        },
        {
          "indexed": true,
          "internalType": "address",
          "name": "assetContract",
          "type": "address"
        },
        {
          "indexed": false,
          "internalType": "uint256",
          "name": "bidAmount",
          "type": "uint256"
        },
        {
          "components": [
            {
              "internalType": "uint256",
              "name": "auctionId",
              "type": "uint256"
            },
            {
              "internalType": "uint256",
              "name": "tokenId",
              "type": "uint256"
            },
            {
              "internalType": "uint256",
              "name": "quantity",
              "type": "uint256"
            },
            {
              "internalType": "uint256",
              "name": "minimumBidAmount",
              "type": "uint256"
            },
            {
              "internalType": "uint256",
              "name": "buyoutBidAmount",
              "type": "uint256"
            },
            {
              "internalType": "uint64",
              "name": "timeBufferInSeconds",
              "type": "uint64"
            },
            {
              "internalType": "uint64",
              "name": "bidBufferBps",
              "type": "uint64"
            },
            {
              "internalType": "uint64",
              "name": "startTimestamp",
              "type": "uint64"
            },
            {
              "internalType": "uint64",
              "name": "endTimestamp",
              "type": "uint64"
            },
            {
              "internalType": "address",
              "name": "auctionCreator",
              "type": "address"
            },
            {
              "internalType": "address",
              "name": "assetContract",
              "type": "address"
            },
            {
              "internalType": "address",
              "name": "currency",
              "type": "address"
            },
            {
              "internalType": "enum IEnglishAuctions.TokenType",
              "name": "tokenType",
              "type": "uint8"
            },
            {
              "internalType": "enum IEnglishAuctions.Status",
              "name": "status",
              "type": "uint8"
            }
          ],
          "indexed": false,
          "internalType": "struct IEnglishAuctions.Auction",
          "name": "auction",
          "type": "tuple"
        }
      ],
      "name": "NewBid",
      "type": "event"
    },
    {
      "anonymous": false,
      "inputs": [
        {
          "indexed": true,
          "internalType": "address",
          "name": "previousOwner",
          "type": "address"
        },
        {
          "indexed": true,
          "internalType": "address",
          "name": "newOwner",
          "type": "address"
        }
      ],
      "name": "OwnershipTransferred",
      "type": "event"
    },
    {
      "anonymous": false,
      "inputs": [
        {
          "indexed": false,
          "internalType": "address",
          "name": "account",
          "type": "address"
        }
      ],
      "name": "Paused",
      "type": "event"
    },
    {
      "anonymous": false,
      "inputs": [
        {
          "indexed": false,
          "internalType": "address",
          "name": "account",
          "type": "address"
        }
      ],
      "name": "Unpaused",
      "type": "event"
    },
    {
      "inputs": [],
      "name": "NATIVE_TOKEN",
      "outputs": [
        {
          "internalType": "address",
          "name": "",
          "type": "address"
        }
      ],
      "stateMutability": "view",
      "type": "function"
    },
    {
      "inputs": [
        {
          "internalType": "uint256",
          "name": "_auctionId",
          "type": "uint256"
        },
        {
          "internalType": "uint256",
          "name": "_bidAmount",
          "type": "uint256"
        }
      ],
      "name": "bidInAuction",
      "outputs": [],
      "stateMutability": "payable",
      "type": "function"
    },
    {
      "inputs": [
        {
          "internalType": "uint256",
          "name": "_auctionId",
          "type": "uint256"
        }
      ],
      "name": "cancelAuction",
      "outputs": [],
      "stateMutability": "nonpayable",
      "type": "function"
    },
    {
      "inputs": [
        {
          "internalType": "uint256",
          "name": "_auctionId",
          "type": "uint256"
        }
      ],
      "name": "collectAuctionPayout",
      "outputs": [],
      "stateMutability": "nonpayable",
      "type": "function"
    },
    {
      "inputs": [
        {
          "internalType": "uint256",
          "name": "_auctionId",
          "type": "uint256"
        }
      ],
      "name": "collectAuctionTokens",
      "outputs": [],
      "stateMutability": "nonpayable",
      "type": "function"
    },
    {
      "inputs": [
        {
          "components": [
            {
              "internalType": "address",
              "name": "assetContract",
              "type": "address"
            },
            {
              "internalType": "uint256",
              "name": "tokenId",
              "type": "uint256"
            },
            {
              "internalType": "uint256",
              "name": "quantity",
              "type": "uint256"
            },
            {
              "internalType": "address",
              "name": "currency",
              "type": "address"
            },
            {
              "internalType": "uint256",
              "name": "minimumBidAmount",
              "type": "uint256"
            },
            {
              "internalType": "uint256",
              "name": "buyoutBidAmount",
              "type": "uint256"
            },
            {
              "internalType": "uint64",
              "name": "timeBufferInSeconds",
              "type": "uint64"
            },
            {
              "internalType": "uint64",
              "name": "bidBufferBps",
              "type": "uint64"
            },
            {
              "internalType": "uint64",
              "name": "startTimestamp",
              "type": "uint64"
            },
            {
              "internalType": "uint64",
              "name": "endTimestamp",
              "type": "uint64"
            }
          ],
          "internalType": "struct IEnglishAuctions.AuctionParameters",
          "name": "_params",
          "type": "tuple"
        }
      ],
      "name": "createAuction",
      "outputs": [
        {
          "internalType": "uint256",
          "name": "auctionId",
          "type": "uint256"
        }
      ],
      "stateMutability": "nonpayable",
      "type": "function"
    },
    {
      "inputs": [
        {
          "internalType": "uint256",
          "name": "_startId",
          "type": "uint256"
        },
        {
          "internalType": "uint256",
          "name": "_endId",
          "type": "uint256"
        }
      ],
      "name": "getAllAuctions",
      "outputs": [
        {
          "components": [
            {
              "internalType": "uint256",
              "name": "auctionId",
              "type": "uint256"
            },
            {
              "internalType": "uint256",
              "name": "tokenId",
              "type": "uint256"
            },
            {
              "internalType": "uint256",
              "name": "quantity",
              "type": "uint256"
            },
            {
              "internalType": "uint256",
              "name": "minimumBidAmount",
              "type": "uint256"
            },
            {
              "internalType": "uint256",
              "name": "buyoutBidAmount",
              "type": "uint256"
            },
            {
              "internalType": "uint64",
              "name": "timeBufferInSeconds",
              "type": "uint64"
            },
            {
              "internalType": "uint64",
              "name": "bidBufferBps",
              "type": "uint64"
            },
            {
              "internalType": "uint64",
              "name": "startTimestamp",
              "type": "uint64"
            },
            {
              "internalType": "uint64",
              "name": "endTimestamp",
              "type": "uint64"
            },
            {
              "internalType": "address",
              "name": "auctionCreator",
              "type": "address"
            },
            {
              "internalType": "address",
              "name": "assetContract",
              "type": "address"
            },
            {
              "internalType": "address",
              "name": "currency",
              "type": "address"
            },
            {
              "internalType": "enum IEnglishAuctions.TokenType",
              "name": "tokenType",
              "type": "uint8"
            },
            {
              "internalType": "enum IEnglishAuctions.Status",
              "name": "status",
              "type": "uint8"
            }
          ],
          "internalType": "struct IEnglishAuctions.Auction[]",
          "name": "auctions",
          "type": "tuple[]"
        }
      ],
      "stateMutability": "view",
      "type": "function"
    },
    {
      "inputs": [
        {
          "internalType": "uint256",
          "name": "_startId",
          "type": "uint256"
        },
        {
          "internalType": "uint256",
          "name": "_endId",
          "type": "uint256"
        }
      ],
      "name": "getAllValidAuctions",
      "outputs": [
        {
          "components": [
            {
              "internalType": "uint256",
              "name": "auctionId",
              "type": "uint256"
            },
            {
              "internalType": "uint256",
              "name": "tokenId",
              "type": "uint256"
            },
            {
              "internalType": "uint256",
              "name": "quantity",
              "type": "uint256"
            },
            {
              "internalType": "uint256",
              "name": "minimumBidAmount",
              "type": "uint256"
            },
            {
              "internalType": "uint256",
              "name": "buyoutBidAmount",
              "type": "uint256"
            },
            {
              "internalType": "uint64",
              "name": "timeBufferInSeconds",
              "type": "uint64"
            },
            {
              "internalType": "uint64",
              "name": "bidBufferBps",
              "type": "uint64"
            },
            {
              "internalType": "uint64",
              "name": "startTimestamp",
              "type": "uint64"
            },
            {
              "internalType": "uint64",
              "name": "endTimestamp",
              "type": "uint64"
            },
            {
              "internalType": "address",
              "name": "auctionCreator",
              "type": "address"
            },
            {
              "internalType": "address",
              "name": "assetContract",
              "type": "address"
            },
            {
              "internalType": "address",
              "name": "currency",
              "type": "address"
            },
            {
              "internalType": "enum IEnglishAuctions.TokenType",
              "name": "tokenType",
              "type": "uint8"
            },
            {
              "internalType": "enum IEnglishAuctions.Status",
              "name": "status",
              "type": "uint8"
            }
          ],
          "internalType": "struct IEnglishAuctions.Auction[]",
          "name": "validAuctions",
          "type": "tuple[]"
        }
      ],
      "stateMutability": "view",
      "type": "function"
    },
    {
      "inputs": [
        {
          "internalType": "uint256",
          "name": "_auctionId",
          "type": "uint256"
        }
      ],
      "name": "getAuction",
      "outputs": [
        {
          "components": [
            {
              "internalType": "uint256",
              "name": "auctionId",
              "type": "uint256"
            },
            {
              "internalType": "uint256",
              "name": "tokenId",
              "type": "uint256"
            },
            {
              "internalType": "uint256",
              "name": "quantity",
              "type": "uint256"
            },
            {
              "internalType": "uint256",
              "name": "minimumBidAmount",
              "type": "uint256"
            },
            {
              "internalType": "uint256",
              "name": "buyoutBidAmount",
              "type": "uint256"
            },
            {
              "internalType": "uint64",
              "name": "timeBufferInSeconds",
              "type": "uint64"
            },
            {
              "internalType": "uint64",
              "name": "bidBufferBps",
              "type": "uint64"
            },
            {
              "internalType": "uint64",
              "name": "startTimestamp",
              "type": "uint64"
            },
            {
              "internalType": "uint64",
              "name": "endTimestamp",
              "type": "uint64"
            },
            {
              "internalType": "address",
              "name": "auctionCreator",
              "type": "address"
            },
            {
              "internalType": "address",
              "name": "assetContract",
              "type": "address"
            },
            {
              "internalType": "address",
              "name": "currency",
              "type": "address"
            },
            {
              "internalType": "enum IEnglishAuctions.TokenType",
              "name": "tokenType",
              "type": "uint8"
            },
            {
              "internalType": "enum IEnglishAuctions.Status",
              "name": "status",
              "type": "uint8"
            }
          ],
          "internalType": "struct IEnglishAuctions.Auction",
          "name": "auction",
          "type": "tuple"
        }
      ],
      "stateMutability": "view",
      "type": "function"
    },
    {
      "inputs": [
        {
          "internalType": "uint256",
          "name": "_auctionId",
          "type": "uint256"
        }
      ],
      "name": "getWinningBid",
      "outputs": [
        {
          "internalType": "address",
          "name": "bidder",
          "type": "address"
        },
        {
          "internalType": "address",
          "name": "currency",
          "type": "address"
        },
        {
          "internalType": "uint256",
          "name": "bidAmount",
          "type": "uint256"
        }
      ],
      "stateMutability": "view",
      "type": "function"
    },
    {
      "inputs": [
        {
          "internalType": "uint256",
          "name": "_auctionId",
          "type": "uint256"
        }
      ],
      "name": "isAuctionExpired",
      "outputs": [
        {
          "internalType": "bool",
          "name": "",
          "type": "bool"
        }
      ],
      "stateMutability": "view",
      "type": "function"
    },
    {
      "inputs": [
        {
          "internalType": "uint256",
          "name": "_auctionId",
          "type": "uint256"
        },
        {
          "internalType": "uint256",
          "name": "_bidAmount",
          "type": "uint256"
        }
      ],
      "name": "isNewWinningBid",
      "outputs": [
        {
          "internalType": "bool",
          "name": "",
          "type": "bool"
        }
      ],
      "stateMutability": "view",
      "type": "function"
    },
    {
      "inputs": [],
      "name": "marketplaceFeeBps",
      "outputs": [
        {
          "internalType": "uint256",
          "name": "",
          "type": "uint256"
        }
      ],
      "stateMutability": "view",
      "type": "function"
    },
    {
      "inputs": [
        {
          "internalType": "address",
          "name": "",
          "type": "address"
        },
        {
          "internalType": "address",
          "name": "",
          "type": "address"
        },
        {
          "internalType": "uint256[]",
          "name": "",
          "type": "uint256[]"
        },
        {
          "internalType": "uint256[]",
          "name": "",
          "type": "uint256[]"
        },
        {
          "internalType": "bytes",
          "name": "",
          "type": "bytes"
        }
      ],
      "name": "onERC1155BatchReceived",
      "outputs": [
        {
          "internalType": "bytes4",
          "name": "",
          "type": "bytes4"
        }
      ],
      "stateMutability": "nonpayable",
      "type": "function"
    },
    {
      "inputs": [
        {
          "internalType": "address",
          "name": "",
          "type": "address"
        },
        {
          "internalType": "address",
          "name": "",
          "type": "address"
        },
        {
          "internalType": "uint256",
          "name": "",
          "type": "uint256"
        },
        {
          "internalType": "uint256",
          "name": "",
          "type": "uint256"
        },
        {
          "internalType": "bytes",
          "name": "",
          "type": "bytes"
        }
      ],
      "name": "onERC1155Received",
      "outputs": [
        {
          "internalType": "bytes4",
          "name": "",
          "type": "bytes4"
        }
      ],
      "stateMutability": "nonpayable",
      "type": "function"
    },
    {
      "inputs": [
        {
          "internalType": "address",
          "name": "",
          "type": "address"
        },
        {
          "internalType": "address",
          "name": "",
          "type": "address"
        },
        {
          "internalType": "uint256",
          "name": "",
          "type": "uint256"
        },
        {
          "internalType": "bytes",
          "name": "",
          "type": "bytes"
        }
      ],
      "name": "onERC721Received",
      "outputs": [
        {
          "internalType": "bytes4",
          "name": "",
          "type": "bytes4"
        }
      ],
      "stateMutability": "pure",
      "type": "function"
    },
    {
      "inputs": [],
      "name": "owner",
      "outputs": [
        {
          "internalType": "address",
          "name": "",
          "type": "address"
        }
      ],
      "stateMutability": "view",
      "type": "function"
    },
    {
      "inputs": [],
      "name": "pause",
      "outputs": [],
      "stateMutability": "nonpayable",
      "type": "function"
    },
    {
      "inputs": [],
      "name": "paused",
      "outputs": [
        {
          "internalType": "bool",
          "name": "",
          "type": "bool"
        }
      ],
      "stateMutability": "view",
      "type": "function"
    },
    {
      "inputs": [],
      "name": "platformFeeRecipient",
      "outputs": [
        {
          "internalType": "address",
          "name": "",
          "type": "address"
        }
      ],
      "stateMutability": "view",
      "type": "function"
    },
    {
      "inputs": [],
      "name": "renounceOwnership",
      "outputs": [],
      "stateMutability": "nonpayable",
      "type": "function"
    },
    {
      "inputs": [
        {
          "internalType": "uint256",
          "name": "_newFeeBps",
          "type": "uint256"
        }
      ],
      "name": "setMarketplaceFee",
      "outputs": [],
      "stateMutability": "nonpayable",
      "type": "function"
    },
    {
      "inputs": [
        {
          "internalType": "address",
          "name": "_newRecipient",
          "type": "address"
        }
      ],
      "name": "setPlatformFeeRecipient",
      "outputs": [],
      "stateMutability": "nonpayable",
      "type": "function"
    },
    {
      "inputs": [
        {
          "internalType": "bytes4",
          "name": "interfaceId",
          "type": "bytes4"
        }
      ],
      "name": "supportsInterface",
      "outputs": [
        {
          "internalType": "bool",
          "name": "",
          "type": "bool"
        }
      ],
      "stateMutability": "view",
      "type": "function"
    },
    {
      "inputs": [
        {
          "internalType": "address",
          "name": "newOwner",
          "type": "address"
        }
      ],
      "name": "transferOwnership",
      "outputs": [],
      "stateMutability": "nonpayable",
      "type": "function"
    },
    {
      "inputs": [],
      "name": "unpause",
      "outputs": [],
      "stateMutability": "nonpayable",
      "type": "function"
    }
  ],
  "bytecode": "0x60803461013157601f6130c638819003918201601f19168301916001600160401b038311848410176101365780849260209460405283398101031261013157516001600055331561011b5760018054336001600160a01b0319821681179092556001600160a01b03167f8be0079c531659141344cd1fd0a4f28419497f9722a3daafe3b4186f6b6457e0600080a361009561014c565b61271081116100ca576002556100a961014c565b600380546001600160a01b03191633179055604051612f5090816101768239f35b60405162461bcd60e51b8152602060048201526024808201527f41756374696f6e486f7573653a204665652063616e6e6f7420657863656564206044820152633130302560e01b6064820152608490fd5b631e4fbdf760e01b600052600060045260246000fd5b600080fd5b634e487b7160e01b600052604160045260246000fd5b6001546001600160a01b0316330361016057565b63118cdaa760e01b6000523360045260246000fdfe608080604052600436101561001357600080fd5b60003560e01c90816301ffc9a714611e7b5750806303a54fe014611bda5780630858e5ad1461145d5780631389b117146113e5578063150b7a021461137657806316654d4014610c925780631871e24314610be55780632eb566bd14610b6257806331f7d96414610b335780633f4ba83a14610ac25780635c975abb14610a9c5780636891939d146109fb578063715018a61461099e57806378bd7935146109175780637b063801146108fd5780638456cb59146108875780638da5cb5b1461085e5780639407ea98146107e357806396b5a755146105bf578063bc197c811461052a578063c291537c14610500578063d3929c8a146104e2578063eb13554f146104b9578063ebf05a6214610221578063f23a6e61146101cc5763f2fde38b1461013d57600080fd5b346101c75760203660031901126101c757610156611ee4565b61015e612dcf565b6001600160a01b031680156101b157600180546001600160a01b0319811683179091556001600160a01b03167f8be0079c531659141344cd1fd0a4f28419497f9722a3daafe3b4186f6b6457e0600080a3005b631e4fbdf760e01b600052600060045260246000fd5b600080fd5b346101c75760a03660031901126101c7576101e5611ee4565b506101ee611efa565b506084356001600160401b0381116101c75761020e90369060040161214b565b5060405163f23a6e6160e01b8152602090f35b346101c75760203660031901126101c75760043561023d6128d8565b806000526005602052806040600020541480610496575b61025d90612192565b806000526005602052604060002060ff600882015460a81c1660048110156104805761029f91610292600360059314156121ea565b015460c01c421015612242565b6000818152600660205260409020600101546102c5906001600160a01b03161515612299565b8060005260076020526040600020805460ff8160081c16610425576101009061ff00191617815581600052600560205261030260406000206122fd565b90826000526006602052604080600020600282519161032083611f10565b8054835260018101546001600160a01b03166020840152015491018190526002548082029390828504148215171561040f5761036361271060ff950480936125ab565b600354610120830151610160909301805192936001600160a01b0390811693928116921673eeeeeeeeeeeeeeeeeeeeeeeeeeeeeeeeeeeeeeee81036103ec5750506103b6936103b191612e8c565b612e8c565b54166103c4575b6001600055005b6000908152600560205260409020600801805460ff60a81b1916600160a91b179055806103bd565b946103fb919261040a96612e53565b516001600160a01b0316612e53565b6103b6565b634e487b7160e01b600052601160045260246000fd5b60405162461bcd60e51b815260206004820152602d60248201527f41756374696f6e486f7573653a2053656c6c6572207061796f757420616c726560448201526c18591e4818dbdb1b1958dd1959609a1b6064820152608490fd5b634e487b7160e01b600052602160045260246000fd5b506000818152600560205260409020600701546001600160a01b03161515610254565b346101c75760003660031901126101c7576003546040516001600160a01b039091168152602090f35b346101c75760003660031901126101c7576020600254604051908152f35b346101c75761052661051a61051436611ece565b9061282f565b60405191829182612077565b0390f35b346101c75760a03660031901126101c757610543611ee4565b5061054c611efa565b506044356001600160401b0381116101c75761056c9036906004016120d3565b506064356001600160401b0381116101c75761058c9036906004016120d3565b506084356001600160401b0381116101c7576105ac90369060040161214b565b5060405163bc197c8160e01b8152602090f35b346101c75760203660031901126101c7576004356105db6128d8565b8060005260056020528060406000205414806107c0575b6105fb90612192565b6000818152600560205260409020600601546001600160a01b031633036107715780600052600560205260406000206008810160ff815460a81c1660048110156104805760010361072d576000838152600660205260409020600101546001600160a01b03166106d257805460ff60a81b1916600360a81b179055600681018054909161069c916001600160a01b031690610695906122fd565b90306128fa565b546001600160a01b03167fd68d26ab7202e0ff43e7ee058c16686e737f214c5832bfc1dd2fbb0518f60d8e600080a36001600055005b60405162461bcd60e51b815260206004820152602d60248201527f41756374696f6e486f7573653a2043616e6e6f742063616e63656c206175637460448201526c696f6e2077697468206269647360981b6064820152608490fd5b606460405162461bcd60e51b815260206004820152602060248201527f41756374696f6e486f7573653a2041756374696f6e206e6f74206163746976656044820152fd5b60405162461bcd60e51b815260206004820152602160248201527f41756374696f6e486f7573653a204e6f742061756374696f6e2063726561746f6044820152603960f91b6064820152608490fd5b506000818152600560205260409020600701546001600160a01b031615156105f2565b346101c75760203660031901126101c7576004356107ff612dcf565b612710811161080d57600255005b60405162461bcd60e51b8152602060048201526024808201527f41756374696f6e486f7573653a204665652063616e6e6f7420657863656564206044820152633130302560e01b6064820152608490fd5b346101c75760003660031901126101c7576001546040516001600160a01b039091168152602090f35b346101c75760003660031901126101c7576108a0612dcf565b60015460ff8160a01c166108ec5760ff60a01b1916600160a01b176001556040513381527f62e78cea01bee320cd4e420270b5ea74000d11b0c9f74754ebdbfc544b05a25890602090a1005b63d93c066560e01b60005260046000fd5b346101c75761052661051a61091136611ece565b9061262e565b346101c75760203660031901126101c7576004356109336124ba565b5080600052600560205280604060002054148061097b575b61095490612192565b60005260056020526101c061096c60406000206122fd565b6109796040518092611f98565bf35b506000818152600560205260409020600701546001600160a01b0316151561094b565b346101c75760003660031901126101c7576109b7612dcf565b600180546001600160a01b031981169091556000906001600160a01b03167f8be0079c531659141344cd1fd0a4f28419497f9722a3daafe3b4186f6b6457e08280a3005b346101c75760203660031901126101c757600435806000526005602052806040600020541480610a79575b610a2f90612192565b6000908152600660209081526040808320600181015460058452938290206008015460029091015482516001600160a01b0395861681529490911692840192909252820152606090f35b506000818152600560205260409020600701546001600160a01b03161515610a26565b346101c75760003660031901126101c757602060ff60015460a01c166040519015158152f35b346101c75760003660031901126101c757610adb612dcf565b60015460ff8160a01c1615610b225760ff60a01b19166001556040513381527f5db9ee0a495bf2e6ff9c91a7834c1ba4fdd244a5e8aa4e537bd38aeae4b073aa90602090a1005b638dfc202b60e01b60005260046000fd5b346101c75760003660031901126101c757602060405173eeeeeeeeeeeeeeeeeeeeeeeeeeeeeeeeeeeeeeee8152f35b346101c7576020610bb9610b7536611ece565b908060005260058452806040600020541480610bc3575b610b9590612192565b80600052600584526040600020906000526006845260026040600020015490612a45565b6040519015158152f35b5060008181526005855260409020600701546001600160a01b03161515610b8c565b346101c75760203660031901126101c757610bfe611ee4565b610c06612dcf565b6001600160a01b03168015610c32576bffffffffffffffffffffffff60a01b6003541617600355600080f35b60405162461bcd60e51b815260206004820152603260248201527f41756374696f6e486f7573653a2046656520726563697069656e742063616e6e6044820152716f74206265207a65726f206164647265737360701b6064820152608490fd5b346101c7576101403660031901126101c757600060405161014081018181106001600160401b0382111761136257604052610ccb611ee4565b815260243560208201908152604435604083019081529190606435906001600160a01b038216820361135e57606083019182526080830191608435835260a084019460a435865260c435926001600160401b038416840361135a5760c0860193845260e435966001600160401b03881688036113565760e0870197885261010435976001600160401b038916890361135257610100880198895261012435946001600160401b038616860361134e57610120890195865260ff60015460a01c1661131657610d976128d8565b6004548951909a90610db1906001600160a01b0316612abe565b968651156112c1576001875114801561129a575b610dce90612c1d565b6001600160401b038151166001600160401b03835116101561123d57426001600160401b03835116106111e15782516001600160a01b03161561118e5784518015908115611182575b5015611123578a5186518851610e39928b92906001600160a01b031633612c7c565b156110cd578b988d95600160a01b600190038d51169751985194600160a01b600190039051169b51905191516001600160401b031695516001600160401b031693516001600160401b031692516001600160401b03169460405199610e9d8b611f41565b8c8b5260208b0190815260408b0191825260608b0192835260808b0193845260a08b0197885260c08b0195865260e08b019485526101008b019687526101208b0198338a526101408c019a8b526101608c019e8f526101808c019c610f02908e6122f1565b60016101a08d018181529e8252600560208190526040928390209d518e559251908d0155915160028c0155915160038b0155915160048a015594519251915193516001600160c01b031960c09190911b1667ffffffffffffffff60801b60809590951b949094166001600160401b0390931691901b6fffffffffffffffff00000000000000001617171790840155516006830180546001600160a01b03199081166001600160a01b039384161790915591516007840180548416918316919091179055945160089092018054909116919094161783555160028110156110b957825460ff60a01b191660a09190911b60ff60a01b161782555160048110156110a557815460ff60a81b191660a89190911b60ff60a81b161790558183526005602090815260408420909360019290916110459061103e906122fd565b30336128fa565b6110506004546123dc565b600455828060a01b0390511683825260058552836040832061107560405180926123eb565b7f5afd538bb1e7fc354db91c5dc4876ea2321a22fb8fbb69c84bda1f84ce1f45df6101c03392a455604051908152f35b634e487b7160e01b85526021600452602485fd5b634e487b7160e01b86526021600452602486fd5b60405162461bcd60e51b815260206004820152602860248201527f41756374696f6e486f7573653a2053656c6c6572206d757374206f776e20746860448201526765204e465428732960c01b6064820152608490fd5b60405162461bcd60e51b815260206004820152603160248201527f41756374696f6e486f7573653a204275796f7574207072696365206d757374206044820152701899480f8f481b5a5b9a5b5d5b48189a59607a1b6064820152608490fd5b90508a5111158e610e17565b60405162461bcd60e51b815260206004820152602560248201527f41756374696f6e486f7573653a2043757272656e63792063616e6e6f74206265604482015264207a65726f60d81b6064820152608490fd5b60405162461bcd60e51b815260206004820152602e60248201527f41756374696f6e486f7573653a2053746172742074696d652063616e6e6f742060448201526d1899481a5b881d1a19481c185cdd60921b6064820152608490fd5b60405162461bcd60e51b815260206004820152602f60248201527f41756374696f6e486f7573653a20456e642074696d65206d757374206265206160448201526e667465722073746172742074696d6560881b6064820152608490fd5b5060028810156112ad5760018814610dc5565b634e487b7160e01b8d52602160045260248dfd5b60405162461bcd60e51b815260206004820152602760248201527f41756374696f6e486f7573653a2061756374696f6e696e67207a65726f20717560448201526630b73a34ba3c9760c91b6064820152608490fd5b60405162461bcd60e51b815260206004820152601060248201526f14185d5cd8589b194e881c185d5cd95960821b6044820152606490fd5b8a80fd5b8980fd5b8880fd5b8780fd5b8480fd5b634e487b7160e01b83526041600452602483fd5b346101c75760803660031901126101c75761138f611ee4565b50611398611efa565b506064356001600160401b0381116101c757366023820112156101c75780600401356001600160401b0381116101c757369101602401116101c757604051630a85bd0160e11b8152602090f35b346101c75760203660031901126101c75760043580600052600560205280604060002054148061143a575b61141990612192565b6000526005602052602060056040600020015460c01c421015604051908152f35b506000818152600560205260409020600701546001600160a01b03161515611410565b61146636611ece565b9060ff60015460a01c166113165761147c6128d8565b806000526005602052806040600020541480611bb7575b61149c90612192565b806000526005602052604060002060ff600882015460a81c16600481101561048057600103611b4c57600501546001600160401b038160801c164210611af95760c01c421015611ab45780600052600560205260406000209080600052600660205260406000208315611a6357600683019360018060a01b038554163314611a1f57600182019160018060a01b0383541633146119ce576008850180549092906001600160a01b031673eeeeeeeeeeeeeeeeeeeeeeeeeeeeeeeeeeeeeeee810361192757508034036118ca575b6004860190815480151590816118bf575b50156117105750548354600290920180546001600160a01b0319841633179095558190557f7003143824ad94e684efcfd33e097dd7cd0e67243daf20f345f5186a9a7ba00a936116b69360019390916001600160a01b039091169081151580611707575b6116c0575b50506005870180546001600160c01b03164260c01b6001600160c01b0319161790556007870191838060a01b0383541690604051908152611627602082018a6123eb565b877f433a278e1c55403e97ab8ffef6ce9fddd5d1fb2695745bbc3affbe0b8106ec6b6101e03393a4600086815260076020908152604091829020805461ffff19169055825460ff60a81b191660a986901b17909255915496830154975482519889526001600160a01b031690880152339087018190529560a082901b9190910394909416939081906060820190565b0390a46001600055005b848060a01b038354169173eeeeeeeeeeeeeeeeeeeeeeeeeeeeeeeeeeeeeeee83146000146116f9576116f29250612e8c565b88806115e3565b61170292612e53565b6116f2565b508015156115de565b95965050600290929192019161172885845488612a45565b156118705781548354336001600160a01b0319831617909355928590556001600160a01b039092169182151580611867575b611821575b5050506005830180546001600160401b038116908115158061180b575b6117d3575b50505060078301546040519283526001600160a01b0316926117a79060208401906123eb565b7f433a278e1c55403e97ab8ffef6ce9fddd5d1fb2695745bbc3affbe0b8106ec6b6101e03393a46103bd565b60c01c016001600160401b03811161040f5781546001600160c01b031660c09190911b6001600160c01b031916179055838080611781565b508161181a428360c01c6125ab565b111561177c565b546001600160a01b03169173eeeeeeeeeeeeeeeeeeeeeeeeeeeeeeeeeeeeeeee8303611859576118519250612e8c565b83808061175f565b61186292612e53565b611851565b5081151561175a565b60405162461bcd60e51b815260206004820152602160248201527f41756374696f6e486f7573653a20426964206e6f74206869676820656e6f75676044820152600d60fb1b6064820152608490fd5b90508110158961157a565b60405162461bcd60e51b815260206004820152602f60248201527f41756374696f6e486f7573653a20496e636f72726563742045544820616d6f7560448201526e1b9d081cd95b9d08199bdc88189a59608a1b6064820152608490fd5b34611974576040516323b872dd60e01b60208201523360248201523060448201526064810183905261196f9161196a82608481015b03601f198101845283611f5d565b612df8565b611569565b60405162461bcd60e51b815260206004820152602c60248201527f41756374696f6e486f7573653a20446f206e6f742073656e642045544820666f60448201526b72204552433230206269647360a01b6064820152608490fd5b60405162461bcd60e51b8152602060048201526024808201527f41756374696f6e486f7573653a20416c72656164792068696768657374206269604482015263323232b960e11b6064820152608490fd5b606460405162461bcd60e51b815260206004820152602060248201527f41756374696f6e486f7573653a2043726561746f722063616e6e6f74206269646044820152fd5b60405162461bcd60e51b8152602060048201526024808201527f41756374696f6e486f7573653a2042696420616d6f756e74206d7573742062656044820152630203e20360e41b6064820152608490fd5b60405162461bcd60e51b815260206004820152601d60248201527f41756374696f6e486f7573653a2041756374696f6e20657870697265640000006044820152606490fd5b60405162461bcd60e51b815260206004820152602560248201527f41756374696f6e486f7573653a2041756374696f6e206e6f742073746172746560448201526419081e595d60da1b6064820152608490fd5b60405162461bcd60e51b815260206004820152603960248201527f41756374696f6e486f7573653a2041756374696f6e206e6f742061637469766560448201527f202863616e63656c6c6564206f7220636f6d706c6574656429000000000000006064820152608490fd5b506000818152600560205260409020600701546001600160a01b03161515611493565b346101c75760203660031901126101c757600435611bf66128d8565b806000526005602052806040600020541480611e58575b611c1690612192565b806000526005602052604060002060ff600882015460a81c16600481101561048057611c4b91610292600360059314156121ea565b600081815260066020526040902060010154611c71906001600160a01b03161515612299565b806000526007602052604060002080549160ff8316611dfc57806000526005602052611ca060406000206122fd565b92816000526006602052604060002092604051611cbc81611f10565b8454815260018060a01b036001860154169060406002602083019784895201549101523303611d9a57600160ff92831916178155611d048560018060a01b03865116306128fa565b5460081c16611d73575b610140830151602080850151610120909501519351604080519687526001600160a01b039586169287019290925284169085015233939216917f7003143824ad94e684efcfd33e097dd7cd0e67243daf20f345f5186a9a7ba00a9080606081016116b6565b6000818152600560205260409020600801805460ff60a81b1916600160a91b179055611d0e565b60405162461bcd60e51b815260206004820152603460248201527f41756374696f6e486f7573653a204f6e6c792077696e6e696e67206269646465604482015273722063616e20636f6c6c65637420746f6b656e7360601b6064820152608490fd5b60405162461bcd60e51b815260206004820152602e60248201527f41756374696f6e486f7573653a2041756374696f6e20746f6b656e7320616c7260448201526d1958591e4818dbdb1b1958dd195960921b6064820152608490fd5b506000818152600560205260409020600701546001600160a01b03161515611c0d565b346101c75760203660031901126101c7576004359063ffffffff60e01b82168092036101c757602091630271189760e51b8114908115611ebd575b5015158152f35b6301ffc9a760e01b14905083611eb6565b60409060031901126101c7576004359060243590565b600435906001600160a01b03821682036101c757565b602435906001600160a01b03821682036101c757565b606081019081106001600160401b03821117611f2b57604052565b634e487b7160e01b600052604160045260246000fd5b6101c081019081106001600160401b03821117611f2b57604052565b90601f801991011681019081106001600160401b03821117611f2b57604052565b9060028210156104805752565b9060048210156104805752565b906101a0806120759380518452602081015160208501526040810151604085015260608101516060850152608081015160808501526001600160401b0360a08201511660a08501526001600160401b0360c08201511660c08501526001600160401b0360e08201511660e08501526001600160401b036101008201511661010085015260018060a01b036101208201511661012085015260018060a01b036101408201511661014085015260018060a01b036101608201511661016085015261206b610180820151610180860190611f7e565b0151910190611f8b565b565b602060408183019282815284518094520192019060005b81811061209b5750505090565b90919260206101c0826120b16001948851611f98565b01940192910161208e565b6001600160401b038111611f2b5760051b60200190565b9080601f830112156101c75781356120ea816120bc565b926120f86040519485611f5d565b81845260208085019260051b8201019283116101c757602001905b8282106121205750505090565b8135815260209182019101612113565b6001600160401b038111611f2b57601f01601f191660200190565b81601f820112156101c75780359061216282612130565b926121706040519485611f5d565b828452602083830101116101c757816000926020809301838601378301015290565b1561219957565b60405162461bcd60e51b8152602060048201526024808201527f41756374696f6e486f7573653a2041756374696f6e20646f6573206e6f7420656044820152631e1a5cdd60e21b6064820152608490fd5b156121f157565b60405162461bcd60e51b815260206004820152602360248201527f41756374696f6e486f7573653a2041756374696f6e207761732063616e63656c6044820152621b195960ea1b6064820152608490fd5b1561224957565b60405162461bcd60e51b815260206004820152602260248201527f41756374696f6e486f7573653a2041756374696f6e207374696c6c2061637469604482015261766560f01b6064820152608490fd5b156122a057565b60405162461bcd60e51b815260206004820152602360248201527f41756374696f6e486f7573653a204e6f2077696e6e696e672062696420706c6160448201526218d95960ea1b6064820152608490fd5b60028210156104805752565b9060405161230a81611f41565b60ff60088294805484526001810154602085015260028101546040850152600381015460608501526004810154608085015260058101546001600160401b03811660a08601526001600160401b038160401c1660c08601526001600160401b038160801c1660e086015260c01c61010085015260018060a01b0360068201541661012085015260018060a01b03600782015416610140850152015460018060a01b0381166101608401526123c7828260a01c1661018085016122f1565b60a81c16906004821015610480576101a00152565b600019811461040f5760010190565b9060ff6101a0600861207594805485526001810154602086015260028101546040860152600381015460608601526004810154608086015260058101546001600160401b03811660a08701526001600160401b038160401c1660c08701526001600160401b038160801c1660e087015260c01c61010086015260018060a01b0360068201541661012086015260018060a01b0360078201541661014086015201549260018060a01b0384166101608201526124af6101808201848660a01c16611f7e565b019160a81c16611f8b565b604051906124c782611f41565b60006101a0838281528260208201528260408201528260608201528260808201528260a08201528260c08201528260e082015282610100820152826101208201528261014082015282610160820152826101808201520152565b60405190612530602083611f5d565b600080835282815b82811061254457505050565b60209061254f6124ba565b82828501015201612538565b90612565826120bc565b6125726040519182611f5d565b8281528092612583601f19916120bc565b019060005b82811061259457505050565b60209061259f6124ba565b82828501015201612588565b9190820391821161040f57565b156125bf57565b60405162461bcd60e51b815260206004820152601b60248201527f41756374696f6e486f7573653a20496e76616c69642072616e676500000000006044820152606490fd5b80518210156126185760209160051b010190565b634e487b7160e01b600052603260045260246000fd5b90811580612827575b6127f0575b612648818311156125b8565b60045480156127e257808210156127cf575b506000825b8281111561273657506126719061255b565b916000905b828111156126845750505090565b80600052600560205260406000208181541480612719575b806126ff575b806126ef575b6126bc575b506126b7906123dc565b612676565b6126b791926126cd6126e8926122fd565b6126d78288612604565b526126e28187612604565b506123dc565b91906126ad565b50600581015460c01c42106126a8565b506001600160401b03600582015460801c164210156126a2565b5060ff600882015460a81c1660048110156104805760011461269c565b80600052600560205260406000208181541490816127b0575b81612795575b81612784575b5061276f575b61276a906123dc565b61265f565b9061277c61276a916123dc565b919050612761565b60059150015460c01c42103861275b565b600581015460801c6001600160401b03164210159150612755565b905060ff600882015460a81c166004811015610480576001149061274f565b60001981019150811161040f573861265a565b5050506127ed612521565b90565b50600454801561281d5760001981019081111561263c57634e487b7160e01b600052601160045260246000fd5b50506127ed612521565b508015612637565b9061283c818311156125b8565b6004549081156127e2578082849210156128c0575b61285b92506125ab565b906001820180921161040f576128708261255b565b9160005b8181106128815750505090565b8083019081841161040f5760019160005260056020526128a460406000206122fd565b6128ae8287612604565b526128b98186612604565b5001612874565b5050600019810190811161040f578161285b91612851565b6002600054146128e9576002600055565b633ee5aeb560e01b60005260046000fd5b909161018081019283519360009460028110156110b9576001036129b95750909160018060a01b036101408401511660406020850151940151813b156129b557918560c4928195946040519788968795637921219560e11b875260018060a01b0316600487015260018060a01b031660248601526044850152606484015260a060848401528160a48401525af180156129aa57612995575050565b6129a0828092611f5d565b6129a75750565b80fd5b6040513d84823e3d90fd5b8580fd5b5160028110156110a557156129cf575b50505050565b602060018060a01b036101408401511692015192823b1561135e57604051632142170760e11b81526001600160a01b03918216600482015291166024820152604481019290925282908290606490829084905af180156129aa57612a35575b80806129c9565b81612a3f91611f5d565b38612a2e565b9080612a55575060030154111590565b8083119283612a65575b50505090565b8192935090612a73916125ab565b612710810290808204612710149015171561040f576001600160401b03916005910492015460401c161115388080612a5f565b908160209103126101c7575180151581036101c75790565b6001600160a01b031680158015612c12575b612b3d576040516301ffc9a760e01b8152636cdb3d1360e11b6004820152602081602481855afa60009181612bf1575b50612be1575b506040516301ffc9a760e01b81526380ac58cd60e01b600482015290602090829060249082905afa60009181612bb0575b50612ba1575b60405162461bcd60e51b815260206004820152603660248201527f41756374696f6e486f7573653a20417373657420636f6e7472616374206d75736044820152757420626520455243373231206f72204552433131353560501b6064820152608490fd5b612bab5780612b3d565b600090565b612bd391925060203d602011612bda575b612bcb8183611f5d565b810190612aa6565b9038612b37565b503d612bc1565b612beb5738612b06565b50600190565b612c0b91925060203d602011612bda57612bcb8183611f5d565b9038612b00565b506101238114612ad0565b15612c2457565b60405162461bcd60e51b815260206004820152602a60248201527f41756374696f6e486f7573653a2061756374696f6e696e6720696e76616c69646044820152691038bab0b73a34ba3c9760b11b6064820152608490fd5b9091929360028110156104805760018103612d165750604051627eeac760e11b81526001600160a01b039182166004820152602481019390935260209183916044918391165afa908115612d0a57600091612cd8575b50101590565b90506020813d602011612d02575b81612cf360209383611f5d565b810103126101c7575138612cd2565b3d9150612ce6565b6040513d6000823e3d90fd5b9390919260009415612d2c575050505050600090565b612d3a600160209314612c1d565b6040516331a9108f60e11b8152600481019190915292839060249082906001600160a01b03165afa839281612d87575b50612d7457505090565b6001600160a01b03918216911614919050565b9092506020813d602011612dc7575b81612da360209383611f5d565b81010312612dc357516001600160a01b0381168103612dc3579138612d6a565b8380fd5b3d9150612d96565b6001546001600160a01b03163303612de357565b63118cdaa760e01b6000523360045260246000fd5b906000602091828151910182855af115612d0a576000513d612e4a57506001600160a01b0381163b155b612e295750565b635274afe760e01b60009081526001600160a01b0391909116600452602490fd5b60011415612e22565b60405163a9059cbb60e01b60208201526001600160a01b03909216602483015260448201929092526120759161196a826064810161195c565b814710612f01576000918291829182916001600160a01b03165af13d15612ef9573d90612eb882612130565b91612ec66040519384611f5d565b82523d6000602084013e5b15612ed95750565b805115612ee857805190602001fd5b63d6bda27560e01b60005260046000fd5b606090612ed1565b504763cf47918160e01b60005260045260245260446000fdfea264697066735822122021c5aca42154812d9fda03b8ec84d8d9b0b543b5212adaf398dccb2cb251f1ab64736f6c634300081c0033",
  "linkReferences": {},
  "deployedLinkReferences": {}
}